:100000000C9434000C9451000C9451000C94510049
:100010000C9451000C9451000C9451000C9451001C
:100020000C9451000C9451000C9451000C9451000C
:100030000C9451000C9451000C9451000C945100FC
:100040000C9451000C9451000C9451000C945100EC
:100050000C9451000C9451000C9451000C945100DC
:100060000C9451000C94510011241FBECFEFD8E026
:10007000DEBFCDBF11E0A0E0B1E0E6E4F9E002C0F0
:1000800005900D92A032B107D9F721E0A0E2B1E0CE
:1000900001C01D92A432B207E1F70E9417010C942F
:1000A000A1040C9400001092B90088E48093B80079
:1000B000089584EA8093BC008091BC0087FFFCCF48
:1000C000089584E98093BC0008958093BB0084E880
:1000D0008093BC008091BC0087FFFCCF089584EC26
:1000E0008093BC008091BC0087FFFCCF8091BB0057
:1000F000089584E88093BC008091BC0087FFFCCF0A
:100100008091BB0008950E9459008AE10E94650019
:1001100089E00E94650081E00E94650084E9809387
:10012000BC0008959F92AF92BF92CF92DF92EF9260
:10013000FF920F931F93CF93DF936C017B018A0192
:100140000E9459008AE10E94650080E00E946500DB
:100150000E9459008BE10E9465000E946F00982E5A
:100160000E946F00B82E0E946F00A82E0E946F00A0
:10017000D82F0E946F00C82F0E94790094E99093B5
:10018000BC003B2D292DF60131832083BD2EF701C4
:10019000B182A082982F8C2FF80191838083DF9108
:1001A000CF911F910F91FF90EF90DF90CF90BF9074
:1001B000AF909F9008959C0150E040E060E472E4AD
:1001C0008FE090E00E94A701215031093093C500D3
:1001D0002093C40088E08093C10086E08093C20031
:1001E00008959091C00095FFFCCF8093C6000895BC
:1001F000CF93DF93EC018991811103C0DF91CF91FF
:1002000008950E94F100F7CF84B1836084B987B16B
:100210008F6087B9089585B1836085B9409A419808
:10022000429A4398089585B18C7F85B90895CF93FC
:10023000DF93CDB7DEB7C658D1090FB6F894DEBF4D
:100240000FBECDBF0E9453000E94830080E895E25C
:100250000E94DB000E940401CC24C394D12C90E0C6
:10026000E92E91E0F92E8E010F5F1F4F0E940B01C6
:10027000D0922301C09222012FEF85EA9EE0215007
:1002800080409040E1F700C00000809120019091F3
:100290002101019690932101809320010E94130176
:1002A00010922301109222012FEF83ED90E3215051
:1002B00080409040E1F700C00000809122019091C1
:1002C0002301892B99F6AE014F575F4FBE016D5741
:1002D0007F4FCE018B579F4F0E949200CE57DF4F2A
:1002E0008881C258D0408F93CF57DF4F8881C15843
:1002F000D0408F93CC57DF4F8881C458D0408F9324
:10030000CD57DF4F8881C358D0408F93CA57DF4FF6
:100310008881C658D0408F93CB57DF4F8881C5580E
:10032000D0408F93809121018F93809120018F93F2
:10033000FF92EF921F930F930E94C901C8010E9480
:10034000F8000FB6F894DEBF0FBECDBF8FCFA1E28D
:100350001A2EAA1BBB1BFD010DC0AA1FBB1FEE1F3F
:10036000FF1FA217B307E407F50720F0A21BB30B8A
:10037000E40BF50B661F771F881F991F1A9469F706
:1003800060957095809590959B01AC01BD01CF0162
:100390000895AEE0B0E0EFECF1E00C9478040D8944
:1003A0001E8986E08C831A8309838FEF9FE79E83E3
:1003B0008D83AE01475E5F4F6F89788DCE010196C8
:1003C0000E94EC012F813885020F131FF801108263
:1003D0002E96E4E00C949404ABE0B0E0E2EFF1E0A0
:1003E0000C946A047C013B018A01FC01178216828D
:1003F000838181FFC8C1CE0101965C01F701938121
:10040000F30193FD859193FF81913F01882309F4C6
:1004100053C1853239F493FD859193FF81913F015A
:10042000853229F4B70190E00E94DC03E7CF912CDC
:10043000212C312CFFE1F31538F08B3211F190F4BF
:10044000803209F1833229F137FC3CC020ED280FBE
:100450002A3050F536FE20C08AE0989E200D1124E7
:10046000922E06C08D3291F0803371F7689430F887
:10047000F30193FD859193FF81913F018111DACFC3
:1004800021C0689431F8689432F8F2CF689433F858
:10049000EFCF689434F8ECCFEAE02E9E200D1124C3
:1004A000222E689435F8E4CF8E3229F436FC04C14C
:1004B000689436F8DDCF8C3619F4689437F8D8CFC5
:1004C0008836B1F2982F9F7D95549330E0F08336B3
:1004D000A1F18337C1F1833509F063C02801F2E04F
:1004E0004F0E511CF801C080D180692D70E036FCA0
:1004F00002C06FEF7FEFC6010E94C6034C016894F3
:1005000037F882010AC00C5F1F4FFFE3F98388248C
:100510008394912C6501E89437F833FE2DC0522C5A
:100520008114910471F5552009F468CFB70180E278
:1005300090E00E94DC035A94F6CFF8018081898311
:100540000E5F1F4FE4CF2801F2E04F0E511CF8015F
:10055000C080D180692D70E036FC02C06FEF7FEF64
:10056000C6010E94D1034C018201D5CFB70180E2C0
:1005700090E00E94DC032A942814190409F0B0F7D3
:10058000CECFF60137FC859137FE81916F01B7011F
:1005900090E00E94DC0351105A94F1E08F1A910808
:1005A000BFCF843619F0893609F077C0F80137FEDD
:1005B0006BC060817181828193810C5F1F4FF32D2D
:1005C000FF763F2E97FF09C09095809570956195B5
:1005D0007F4F8F4F9F4F689437F82AE030E0A50196
:1005E0000E940C04C82ECA188C2C432C36FE0CC05A
:1005F000E89440F8C91440F434FE05C032FC03C04E
:10060000F32DFE7E4F2E892C44FE95C0FE01EC0D8D
:10061000F11D8081803309F087C0242D297E422E70
:10062000842D8870582E43FC95C040FE8FC09C2CB2
:10063000821418F42C0C922C981844FE91C0B70127
:1006400080E390E00E94DC0342FE09C088E790E06E
:1006500041FE02C088E590E0B7010E94DC03C914A6
:1006600008F48AC0CA94D12C9FEFC91AD90ACA0CBF
:10067000DB1CF60182916F01B70190E00E94DC0360
:10068000AC14BD04B1F74FCF60817181072E000C0F
:10069000880B990B0E5F1F4F92CFD32CE894D4F8A0
:1006A0002AE030E0853739F1232D297FD22E8F368D
:1006B00001F148F48835A9F0F701868197812B96DE
:1006C000E2E10C948604803749F08837A9F7D4FE1C
:1006D00002C06894D2F820E130E00DC06894D4F8EC
:1006E000F6CF34FE03C0822F8660D82E20E132E0A0
:1006F00002C028E030E0F801D7FE0FC060817181B0
:10070000828193810C5F1F4FA5010E940C04C82EAB
:10071000CA183D2CE89437F867CF6081718190E06A
:1007200080E00E5F1F4FF0CF42FC02C0839478CF71
:100730008394839475CF842D867809F471CFF6CF96
:10074000B70180E290E00E94DC0383948214C0F33E
:10075000512C73CF522C5818821408F46ECFF8CF56
:10076000842D867809F47BCF8BE241FE80E247FC42
:100770008DE2B70190E071CFB70180E390E00E9475
:10078000DC039A946CCF8FEF9FEF99CFFC0105901B
:10079000615070400110D8F7809590958E0F9F1F83
:1007A0000895FC016150704001900110D8F78095C8
:1007B00090958E0F9F1F08950F931F93CF93DF93F4
:1007C000182F092FEB018B8181FD09C01FEF0FEF5F
:1007D000812F902FDF91CF911F910F91089582FF6C
:1007E00014C02E813F818C819D81281739073CF4EC
:1007F000E881F981CF0101969983888310838E81E6
:100800009F8101969F838E83E3CFE885F985812FB1
:100810000995892BA1F3DACFFA01AA27283051F1E3
:10082000203181F1E8946F936E7F6E5F7F4F8F4F21
:100830009F4FAF4FB1E03ED0B4E03CD0670F781F80
:10084000891F9A1FA11D680F791F8A1F911DA11D65
:100850006A0F711D811D911DA11D20D009F468949E
:100860003F912AE0269F11243019305D3193DEF646
:10087000CF010895462F4770405D4193B3E00FD0FC
:10088000C9F7F6CF462F4F70405D4A3318F0495DE7
:1008900031FD4052419302D0A9F7EACFB4E0A695CA
:1008A0009795879577956795BA95C9F700976105EC
:1008B000710508959B01AC010A2E06945795479542
:1008C00037952795BA95C9F7620F731F841F951F37
:1008D000A01D08952F923F924F925F926F927F9248
:1008E0008F929F92AF92BF92CF92DF92EF92FF9240
:1008F0000F931F93CF93DF93CDB7DEB7CA1BDB0BEC
:100900000FB6F894DEBF0FBECDBF09942A88398890
:1009100048885F846E847D848C849B84AA84B98497
:10092000C884DF80EE80FD800C811B81AA81B981A3
:10093000CE0FD11D0FB6F894DEBF0FBECDBFED01B7
:060940000895F894FFCFBA
:10094600537465703A2025642C20583A2025642C6F
:1009560020593A2025642C205A3A2025640D0A0095
:00000001FF
